:100000000C94BF070C94FC0F0C94D50F0C94E707CD
:100010000C94E7070C94E7070C94E7070C94E707A8
:100020000C94E7070C94E7070C94E7070C94E70798
:100030000C94E7070C94E7070C94E7070C94E70788
:100040000C948B0F0C94E7070C9449100C9423101C
:100050000C94E7070C94E7070C94E7070C94E70768
:100060000C94E7070C94E70700407A10F35A00A0BD
:10007000724E18090010A5D4E80000E87648170071
:1000800000E40B54020000CA9A3B000000E1F505B1
:10009000000080969800000040420F000000A086FB
:1000A00001000000102700000000E803000000002D
:1000B0006400000000000A000000000001000000D1
:1000C00000002C76D888DC674F0823DFC1DFAE59EB
:1000D000E1B1B796E5E3E453C63AE651997696E87E
:1000E000E6C28426EB898C9B62ED407C6FFCEFBC02
:1000F0009C9F40F2BAA56FA5F490055A2AF75C932D
:100100006B6CF9676DC11BFCE0E40D47FEF520E662
:10011000B500D0ED902E0300943577050080841E45
:10012000080000204E0A000000C80C333333330FA0
:10013000986E12831141EF8D2114893BE65516CF3D
:10014000FEE6DB18D1844B381BF77C1D901DA4BB49
:10015000E424203284725E228100C9F124ECA1E5FE
:100160003D27FFE0FFD1AFFF32FFD0FFFEFFE0FFF2
:10017000D1AEFFD0FFFEFFE0FFD11000FFFEFFD0A9
:10018000FFE0FFC1FFD1AED580A81FD300408D1482
:100190002002A1C8DA0281CFD9F1DB402EA4A6AF9C
:1001A000FFD0FFFE00000000240027002A0000000E
:1001B0000000250028002B000000000800020100BC
:1001C0000003040700000000000000000102040812
:1001D00010204080010204081020010204081020B1
:1001E0000000000023002600290004040404040485
:1001F0000404020202020202030303030303001CBD
:1002000025FEF8130423096B207FFB13FB13FB006F
:100210000000060001031313070200E0E0E0E0E045
:10022000E0E0E0E0E0E0C0C0C00000E0E0E00506A3
:100230000609020DD8D8D8D8D8900C12240E010087
:100240000CC00CC00CC00CC00CC07FF07FF019803B
:10025000198019801980FFE0FFE03300330033007C
:10026000330033000C152A0D00FE06003F807FE0AE
:10027000F6E0E670E670F6007E003E000F0007C074
:1002800007E006F0E670E670E670F6F07FE01FC06B
:10029000060006001512361600000007003E070093
:1002A0007F0E00E38E00C19C00C19C00E3B8007F7C
:1002B00038003E700000700000E3E000E7F001CE7F
:1002C0003801CC18038C18038E380707F00703E0B9
:1002D0001012241201000F801FC03DE038E038E00A
:1002E00038E01DC00F801F003F9C7BDC71FCE0F8F4
:1002F000E070E0F8F1FC7FCE1F8702060606020DD3
:10030000C0C0C0C0C0800618180801FB0C1C3838DB
:10031000707060E0E0E0E0E0E0E0E0E0E06070709D
:1003200038381C0C0618180801FBC0E0707038380B
:10033000181C1C1C1C1C1C1C1C1C1C183838707025
:10034000E0C00807070A010C1818DBFF3C66660CC2
:100350000C180F010106000600060006000600FF4B
:10036000F0FFF00600060006000600060003060681
:100370000702FDE0E0E06060C0070303080006FE3E
:10038000FEFE030303070200E0E0E0071313080189
:10039000000606060C0C0C18181818303030606077
:1003A00060C0C0C00C12240D00001F803FC079E067
:1003B00070E070E0E070E070E070E070E070E070BD
:1003C000E070E07070E070E079E03FC01F800712DD
:1003D000120D02000E0E1EFEFE0E0E0E0E0E0E0E64
:1003E0000E0E0E0E0E0E0C12240D00001F007FC00C
:1003F00071E0E0E0E070E070007000E001E003C058
:1004000007801F003C007800F000E000FFF0FFF0E4
:100410000C12240D00001F007FC071C0E0E0E0E07E
:10042000E0E000E001C00F800FE000E0007000702D
:10043000E070E0F071E07FE01F800C12240D0000FE
:1004400001C003C003C007C007C00DC01DC019C054
:1004500031C071C061C0E1C0FFF0FFF001C001C058
:1004600001C001C00C12240D00007FE07FE070008D
:100470007000700070007F807FC071E000E000704D
:1004800000700070E070E0F0F1E07FC01F800C129F
:10049000240D00000F803FE078E07070E070E00015
:1004A000E000EF00FFC0F9E0F0E0E070E070E07025
:1004B00070E079E03FC01F800C12240D0000FFF0B7
:1004C000FFF000F000E001C001C0038003800700DE
:1004D00007000E000E001E001C001C003C0038002F
:1004E00038000C12240D00000F003FC039C070E02E
:1004F00070E070E070E039C01F803FC070E0E070D5
:10050000E070E070E07070E07FE01F800C12240D5E
:1005100000001F807FC079E0F0E0E070E070E070E4
:10052000E070F0F079F07FF01F7000700070E0E094
:10053000F3E07FC01F00030E0E070200E0E0E000C2
:1005400000000000000000E0E0E00311110702FDE0
:10055000E0E0E00000000000000000E0E0E060609B
:10056000C00D0C180F0001003800F803E00F803EAA
:1005700000F000F0003E000F8003E000F800380AB1
:10058000050A0E0205FFC0FFC00000FFC0FFC00D3E
:100590000C180E0101E000F8003E000F8003E0009F
:1005A00078007803E00F803E00F800E0000B13268F
:1005B0000F02001F807FC079E0F0E0E0E0E1E001A1
:1005C000C003C0078007000E000E000E000E0000E2
:1005D0000000000E000E000E001616421801FC016D
:1005E000FF0007FFC00F81F01E00783C0038787DC7
:1005F0009C70FF9CF1C71CE3871CE30E1CE70E38C0
:10060000E70C38E71C70E71C70E39DE0F3FFC07156
:10061000F7007800003C00001F07000FFF0003FCFC
:100620000010132612010003C003C007E007E00E0C
:10063000600E700E701C381C381C38381C381C3F7B
:10064000FC7FFE700E700EE007E007E0070F132638
:10065000120200FFE0FFF8E078E01CE01CE01CE084
:100660001CE038FFF0FFF8E01CE00EE00EE00EE0CA
:100670000EE01EE07CFFF8FFE010132612010007D9
:10068000F01FFC3E3E780F7007F000E000E000E055
:1006900000E000E000E000E000F0077007780F3EA7
:1006A0003E1FFC07F0101326130200FFE0FFF8E0E6
:1006B0007CE01EE00EE00FE007E007E007E007E067
:1006C00007E007E007E00FE00EE01EE07CFFF8FF28
:1006D000E00D1326100200FFF0FFF0E000E000E064
:1006E00000E000E000E000FFE0FFE0E000E000E00C
:1006F00000E000E000E000E000FFF8FFF80C132647
:100700000F0200FFF0FFF0E000E000E000E000E09A
:1007100000E000FFE0FFE0E000E000E000E000E0DB
:1007200000E000E000E000E00011133913010007D1
:10073000F0001FFC003E3E00780F00700700F00044
:1007400000E00000E00000E00000E07F80E07F804B
:10075000E00380E00380F00380700780780F803E24
:100760003F801FFB8007F3800F1326130200E00E6B
:10077000E00EE00EE00EE00EE00EE00EE00EFFFEFA
:10078000FFFEE00EE00EE00EE00EE00EE00EE00EEA
:10079000E00EE00E031313070200E0E0E0E0E0E00B
:1007A000E0E0E0E0E0E0E0E0E0E0E0E0E00B1326A5
:1007B0000E010000E000E000E000E000E000E000EA
:1007C000E000E000E000E000E000E0E0E0E0E0E089
:1007D000E0E0E071E07FC03F800E1326120200E0EF
:1007E0003CE078E0F0E1E0E3C0E780EF00FE00FEEF
:1007F00000FF00F780E380E1C0E1E0E0E0E070E0CE
:1008000078E038E03C0C13260F0200E000E000E046
:1008100000E000E000E000E000E000E000E000E0D8
:1008200000E000E000E000E000E000E000FFF0FF9A
:10083000F0131339170200E000E0F001E0F001E0EE
:10084000F803E0F803E0FC07E0EC06E0EE0EE0E67B
:100850000CE0E71CE0E71CE0E318E0E3B8E0E3B8F5
:10086000E0E1F0E0E1F0E0E0E0E0E0E0E0E0E0E066
:100870000F1326130200E00EF00EF00EF80EF80E25
:10088000FC0EEE0EEE0EE70EE38EE38EE1CEE0CE32
:10089000E0EEE07EE03EE03EE01EE00E1113391394
:1008A000010007F0001FFC003E3E00780F007007BB
:1008B00000F00780E00380E00380E00380E0038035
:1008C000E00380E00380E00380F007807007007899
:1008D0000F003E3E001FFC0007F0000E1326110221
:1008E00000FFE0FFF8E038E01CE01CE01CE01CE04A
:1008F00038FFF8FFF0E000E000E000E000E000E09A
:1009000000E000E000E00011143C1301FF07F000DC
:100910001FFC003E3E00780F00700700F00780E0EB
:100920000380E00380E00380E00380E00380E003D5
:1009300080E00380F02780707700783F003E1E0043
:100940001FFE0007F7000002000E1326110200FF31
:10095000E0FFF8E038E01CE01CE01CE01CE038FFA1
:10096000F8FFF0E078E038E01CE01CE01CE01CE060
:100970001CE01CE01C0E13261102000FC03FF07893
:10098000F8F038E038E000F0007C003FC007F000ED
:10099000F8003C001CE01CE01CE03CF8F87FF01F75
:1009A000C00F13260F0000FFFEFFFE03800380032D
:1009B000800380038003800380038003800380031F
:1009C000800380038003800380038003800F13264D
:1009D000130200E00EE00EE00EE00EE00EE00EE08E
:1009E0000EE00EE00EE00EE00EE00EE00EE00EF087
:1009F0001E701C7C7C3FF80FE0101326120100E0F3
:100A000007E007F00F700E781E381C381C3C3C1CA9
:100A1000381C381E780E700E700E7007E007E00369
:100A2000C003C003C0151339170100E07038E0702F
:100A300038E07038E0703870F87070F87070D87006
:100A400071DC7031DC6039DCE0398CE03B8EE01B1E
:100A50008EC01B8EC01F07C01F07C00E03800E0371
:100A6000800E0380101326120100E007F00F781E9D
:100A7000381C1C380E700FF007E003C003C007E0FD
:100A80000FF00E701C383C3C381C700EF00FE00765
:100A90000F1326110100E00EF00E701C781C383880
:100AA0003C381C701C700EE00EE007C007C00380CD
:100AB0000380038003800380038003800E132610CD
:100AC0000100FFFCFFFC003C007800F001E001E0C9
:100AD00003C0078007800F001E001E003C00380086
:100AE0007800F000FFFCFFFC0518180801FBF8F87F
:100AF000E0E0E0E0E0E0E0E0E0E0E0E0E0E0E0E0F6
:100B0000E0E0E0E0F8F8071313080000C0C0C060A0
:100B10006060303030301818180C0C0C06060605D2
:100B200018180802FBF8F8383838383838383838A8
:100B30003838383838383838383838F8F80B091237
:100B40000E010A0E000E001F001B003B8071C071D9
:100B5000C0E0E0E0E00E02040E00FBFFFCFFFC063C
:100B6000040408010FE070381C0C0E1C0E01001F5D
:100B7000803FC071E070E000E007E03FE07CE0F023
:100B8000E0E0E0E1E0F3E07FF03E700C13260F02BE
:100B900000E000E000E000E000E000EF80FFC0F9CE
:100BA000E0F0E0E070E070E070E070E070E070F0C5
:100BB000E0F9E0FFC0EF800B0E1C0D01001F803F2D
:100BC000C079E070E0E000E000E000E000E000E07C
:100BD0000070E079E03FC01F800C13260F01000079
:100BE0007000700070007000701F703FF079F0703E
:100BF000F0E070E070E070E070E070E07070F0794C
:100C0000F03FF01F700C0E1C0E01000F003FC0796A
:100C1000E070E0E070E070FFF0FFF0E000E00070F6
:100C20007078F03FE00F800713130901001E3E3873
:100C30003838FEFE383838383838383838383838A8
:100C40000C13260F01FB1F703FF079F070F0E0707D
:100C5000E070E070E070E070E07070F079F03FF00C
:100C60001F700070E070F0E07FE01F800B13260F14
:100C70000200E000E000E000E000E000EF00FFC064
:100C8000F1C0E0E0E0E0E0E0E0E0E0E0E0E0E0E073
:100C9000E0E0E0E0E0E0E0E0031313070200E0E062
:100CA000E00000E0E0E0E0E0E0E0E0E0E0E0E0E004
:100CB000E00518180700FB38383800003838383895
:100CC00038383838383838383838383838F8F00B59
:100CD00013260E0200E000E000E000E000E000E18A
:100CE000C0E3C0E780EF00FE00FC00FE00EF00E77D
:100CF00000E780E3C0E1C0E1E0E0E0031313070296
:100D000000E0E0E0E0E0E0E0E0E0E0E0E0E0E0E0C3
:100D1000E0E0E0E0110E2A150200EF3E00FFFF00C8
:100D2000F3E780E1C380E1C380E1C380E1C380E1F8
:100D3000C380E1C380E1C380E1C380E1C380E1C33C
:100D400080E1C3800B0E1C0F0200EF80FFC0F1C0DA
:100D5000E0E0E0E0E0E0E0E0E0E0E0E0E0E0E0E093
:100D6000E0E0E0E0E0E00C0E1C0E01000F003FC0F0
:100D700079E070E0E070E070E070E070E070E070EA
:100D800070E079E03FC00F000C13260F02FBEF80EC
:100D9000FFC0F9E0F0E0E070E070E070E070E0705B
:100DA000E070F0E0F9E0FFC0EF80E000E000E0007C
:100DB000E000E0000C13260F01FB1F703FF079F0FC
:100DC00070F0E070E070E070E070E070E07070F083
:100DD00079F03FF01F7000700070007000700070BC
:100DE000070E0E0A0200EEFEFEF0E0E0E0E0E0E0BA
:100DF000E0E0E0E00B0E1C0D01003F007F80F3C03F
:100E0000E1C0E000FC007F800FC001E0E0E0E0E036
:100E1000F1E07FC03F8007121209010038383838EE
:100E2000FEFE383838383838383838383E1E0B0E21
:100E30001C0F0200E0E0E0E0E0E0E0E0E0E0E0E005
:100E4000E0E0E0E0E0E0E0E0E1E073E07EE01CE034
:100E50000C0E1C0E0100E070E070E07070E070E0BD
:100E600070E039C039C039C01F801F800F000F00EB
:100E70000F00130E2A130000E0E0E0E0E0E060E085
:100E8000C071F1C071F1C031B18033B9803BBB801A
:100E90001B1B001F1F001F1F000E0E000E0E000E5A
:100EA0000E000B0E1C0D0100E0E0F1E071C03B8074
:100EB0003F801F000E001F001F003B807BC071C0E1
:100EC000F1E0E0E00D13260F01FBE038E038703868
:100ED000787038703CF01CE01CE00FC00FC007C0F9
:100EE000078003800380070007000E003E003C00DF
:100EF0000B0E1C0D0100FFE0FFE001C00380078026
:100F00000F000E001E003C0038007000F000FFE0F3
:100F1000FFE00718180A01FB0E1C3838383838383B
:100F2000383870E0E07038383838383838381C0EC7
:100F30000218180703FBC0C0C0C0C0C0C0C0C0C0FA
:100F4000C0C0C0C0C0C0C0C0C0C0C0C0C0C0071802
:100F5000180A02FBE07038383838383838381C0E38
:100F60000E1C383838383838383870E00B04080E22
:100F7000010578E0FEE0EFE0E3C0FF007B10112404
:100F80001FBECFEFD8E0DEBFCDBF11E0A0E0B1E0E3
:100F9000E0E7F6E302C005900D92AC34B107D9F753
:100FA00023E0ACE4B1E001C01D92A532B207E1F745
:100FB00017E0CFEBD7E004C02197FE010E94301B61
:100FC000CE3BD107C9F70E942D120C94361B0C940E
:100FD0000000089580E008958091EF029091F00262
:100FE000009739F120910203FC01211123C03596AD
:100FF000E491E0930303FC013C96E491E093040345
:1010000080910303082E000C990B20910403821B8E
:10101000910927FD939520910503203441F0829F8B
:10102000C001112426E0969587952A95E1F78093D3
:1010300006030895213039F43F96E491E0930303C9
:10104000FC017096DACF3D96E491E0930303FC0136
:101050003E96D3CFFC0180819281980F92832181AB
:10106000921760F494819F5F94839381890F821714
:1010700010F08FEF820F838381E0089580E0089560
:10108000FC011282808181508383148208952EE9AD
:101090003FE0009709F40895F9013197F1F70197BE
:1010A000F8CFCF93DF9300D0CDB7DEB720ED37E098
:1010B0003A8329839091BC00982311F081E00FC0FE
:1010C00029813A81232B81F48091ED0181FDF6CFB6
:1010D0008091EC0181110DC091E09093EC010F9093
:1010E0000F90DF91CF91089529813A8121503109E4
:1010F000DFCF80E0F4CF84EA8093BC0061E080E839
:101100000E945108811102C080E008958091B900C9
:10111000887F883051F0803141F08091EC0181115D
:10112000F3CF82E08093EC01EFCF88E78093BB00A0
:1011300084E88093BC0062E080E80E945108882324
:1011400019F38091ED0181FD05C08091B900887F80
:10115000883119F781E0089584E98093BC0064E048
:1011600080E10C9451088093BB0084E88093BC001C
:1011700063E080E80E9451088823A1F08091ED018E
:1011800081FD0DC08091B900887F883241F0809147
:10119000EC01811106C092E09093EC01089581E08A
:1011A000089580E008951092EC0108958093ED0178
:1011B0001092B90084FF05C08CE08093B8000C94B5
:1011C000D30888E4FACFCF93DF93FC0123A5222331
:1011D00089F0EC010E947B08811104C080E0DF915E
:1011E000CF9108958EA1811107C00E94B308882372
:1011F000A9F31BA681E0F3CF80E4F7CF0F931F93F1
:10120000CF93DF93C62FD42F8901633001F138F4D7
:10121000613099F0623009F449C0C1E012C0663013
:1012200029F1673091F16530C1F70E94E30881111F
:1012300017C00E94AC08C0E004C0FC0186A50E9453
:10124000D6088C2FDF91CF911F910F910895FC014B
:1012500016A221E023A74111E0CF0E94AC08DDCF08
:101260008D2F0E94B3088111D8CFE3CF0E94E308ED
:101270008823F9F2DD2389F2F80181918F010E9420
:10128000B3088823B1F2D150F5CF0E94E308882338
:1012900081F2DD2311F2F80184910E94B308C82F76
:1012A000882379F20F5F1F4FD150F3CFFC0146A383
:1012B00021E023A7B2CFDB011496ED91FC9130E041
:1012C00020E065E00994DB011496ED91FC9130E09B
:1012D00020E062E00994DB011496ED91FC9130E08E
:1012E00020E063E00994CF92DF92EF92FF920F9398
:1012F0001F93CF93DF938C017B016A0180E0F6019D
:10130000C491811110C081E0CF3F49F04C2FB7014B
:10131000C8010E945B09882309F444C080E0BFEF44
:10132000CB1ADB0AECCF4FEFCF3F89F3CE3FD9F199
:10133000C03FA0F7C03E38F04C2F4F70B701C80136
:101340000E946309EBCFC03D38F04C2F4F70B701BE
:10135000C8010E946B09E2CFC03CF8F0D701149697
:10136000ED91FC9130E020E040E064E0C801099597
:10137000C295C07FCE5FD0E0CE010E944708D70162
:101380001496ED91FC9130E020E041E064E0C8016A
:101390000995CE010E944708C1CFC7FDBFCF8C2F52
:1013A00090E0F8CF80E0DF91CF911F910F91FF90F7
:1013B000EF90DF90CF90089590E0FC01E854FE4F4D
:1013C0002491FC01E453FE4F3491FC01E651FE4FA1
:1013D000E491EE23C9F0222339F0233001F1A8F47F
:1013E000213019F1223029F1F0E0EE0FFF1FE25514
:1013F000FE4FA591B4918FB7F894EC91611126C07E
:1014000030953E233C938FBF08952730A9F02830B4
:10141000C9F0243049F7809180008F7D03C080910E
:1014200080008F7780938000DFCF84B58F7784BD75
:10143000DBCF84B58F7DFBCF8091B0008F77809319
:10144000B000D2CF8091B0008F7DF9CF3E2BDACFA4
:10145000CF93DF9390E0FC01E453FE4F249186513B
:101460009E4FFC0184918823D1F090E0880F991F52
:10147000FC01EC55FE4FA591B491FC01E255FE4FE5
:10148000C591D491623071F49FB7F8943C91822F4A
:10149000809583238C93E8812E2B28839FBFDF9137
:1014A000CF9108958FB7F894EC912E2B2C938FBF8A
:1014B000F6CFCF93DF93EC0161E08BE00E94280A26
:1014C000209731F460E08BE0DF91CF910C94DC0940
:1014D000CF3FD10511F461E0F6CFE3ECF1E0E49108
:1014E000E33029F140F4E130B1F0E230D9F0C03816
:1014F000D1058CF7E7CFE73021F1E83051F1E43046
:10150000B1F780918000806280938000D0938B003F
:10151000C0938A0004C084B5806884BDC7BDDF91D4
:10152000CF91089584B5806284BDC8BDF8CF809105
:101530008000806880938000D0938900C0938800E9
:10154000EECF8091B00080688093B000C093B3006C
:10155000E6CF8091B00080628093B000C093B40069
:10156000DECF0895AF92BF92CF92DF92EF92FF92BB
:101570000F931F93CF93DF936C017B018B01040FBB
:10158000151FEB015E01AE18BF08C017D10759F057
:101590006991D601ED91FC910190F081E02DC60199
:1015A0000995892B79F7C501DF91CF911F910F9193
:1015B000FF90EF90DF90CF90BF90AF900895FC0127
:1015C000808D8F5F0895FC01538D448D252F30E071
:1015D000842F90E0821B930B541710F0CF96089540
:1015E00001970895FC01918D828D981761F0A28D6D
:1015F000AE0FBF2FB11D5D968C91928D9F5F9F7333
:10160000928F90E008958FEF9FEF0895FC01918DE8
:10161000828D981731F0828DE80FF11D858D90E055
:1016200008958FEF9FEF0895FC01918D228D892FF2
:1016300090E0805C9F4F821B91098F7399270895DA
:101640008EEE91E00E94140B21E0892B09F420E03A
:10165000822F089580E090E0892B29F00E94200BD2
:1016600081110C9400000895FC01A48DA80FB92FDE
:10167000B11DA35ABF4F2C91848D90E001968F73BA
:101680009927848FA689B7892C93A089B1898C91D9
:10169000837080648C93938D848D981306C0028828
:1016A000F389E02D80818F7D80830895EF92FF92F2
:1016B0000F931F93CF93DF93EC0181E0888F9B8D75
:1016C0008C8D98131AC0E889F989808185FF15C02F
:1016D0009FB7F894EE89FF896083E889F989808152
:1016E0008370806480839FBF81E090E0DF91CF9121
:1016F0001F910F91FF90EF900895F62E0B8D10E043
:101700000F5F1F4F0F731127E02E8C8D8E110CC0B1
:101710000FB607FCFACFE889F989808185FFF5CFFC
:10172000CE010E94340BF1CFEB8DEC0FFD2FF11D9C
:10173000E35AFF4FF0829FB7F8940B8FEA89FB8939
:1017400080818062CFCFCF93DF93EC01888D882397
:10175000B9F0AA89BB89E889F9898C9185FD03C014
:10176000808186FD0DC00FB607FCF7CF8C9185FFF9
:10177000F2CF808185FFEDCFCE010E94340BE9CFFF
:10178000DF91CF910895DC011696ED91FC911797AA
:1017900012968C91481B477081E090E001C0880F41
:1017A0004A95EAF7E60FF11D3081222319F0832BC9
:1017B0008083089580958323FBCFFB014181DC0169
:1017C00012962C911297421768F013962C9113974A
:1017D000241740F0608115962C91621718F424812B
:1017E0000C94C30B0895DB01ED91FC9109940F93C8
:1017F0001F93CF93DF931F92CDB7DEB70091ED0219
:101800001091EE02E0911C03F0911D0382E0099516
:1018100030E020E04AE0B8018BEE92E00E94F30B4A
:10182000182FE0911C03F0911D0383E00995E091CE
:101830001C03F0911D0380E009951123B9F160911B
:10184000ED027091EE029E012F5F3F4F46E48BEE5A
:1018500092E00E94F30B89818093EB026091ED028C
:101860007091EE029E012F5F3F4F47E48BEE92E0B6
:101870000E94F30B89818093EC026091ED027091DC
:10188000EE0230E020E048E48BEE92E00E94F30BA1
:101890008093F6026091ED027091EE022EE133E04A
:1018A00047E18BEE92E00E94F30B11E0812F0F9045
:1018B000DF91CF911F910F9108950B96FC018491B8
:1018C00008950A96FC0184910895FC01849108957D
:1018D0000E94650C882321F0823011F083E0089586
:1018E00086E00895FC01E60FF11D849190E0982FA9
:1018F00088273196E4918E0F911D089568E00C942D
:10190000720C66E00C94720C5F926F927F928F92D1
:101910009F92AF92BF92CF92DF92EF92FF920F937E
:101920001F93CF93DF93EC01E62EF42EC22E0C8191
:101930001D81C8010E94650CD82E8C819D810E945A
:10194000680C982E21E0AA24AA94D21202C02FE09B
:10195000A22E8C819D810E94610CD82E8C819D814C
:101960000E945D0CB82E8C819D810E947E0CE0E669
:10197000EC1578F4009769F0080F191F91E6D92E3D
:10198000BC14C0F4188A1B8A1C8A198A1A8A80E03F
:10199000A0C08C819D810E94810CF0E4FC1538F47C
:1019A000009729F0080F191F81E4D82EE9CF0F5EA8
:1019B0001F4FE6CFBD1430F3892D90E0F80124913C
:1019C0002F3F31F40F5F1F4FBD14E1F2D394F6CFD8
:1019D000CD1072C08C819D810E94650C98012F5F93
:1019E0003F4FF801882319F0823009F04EC08491EE
:1019F0008B8BF90124912C8BF8013396E491E88BC1
:101A0000F8013496E491E98BF8013596E491EA8B7C
:101A10000115110509F4BBCF8C819D810E94680CD2
:101A20003C89F31A9A89F91A9FEF930F9F0D2CA9FD
:101A30004EA94F1508F449C0921718F49F1508F0E5
:101A400047C02B899989E90E9FEF920F9E0D4BA9F4
:101A50005DA95E1508F44DC0941718F49E1508F0A2
:101A600037C0080F111D295F722E769476947694F4
:101A70006F2C630E5E01FCE1AF0EB11C872C912C24
:101A8000F61431F15E2C68014AC08491982F9F7042
:101A900092509A8B82958F70898BF9012491822FB5
:101AA0008F708C8B22952F702B8BF8013296E491DE
:101AB000E295EF70E88BACCF3296E491EA21E80F23
:101AC000F92FF11D0E0F1F1F7FCF921708F0B6CF11
:101AD0008889DF91CF911F910F91FF90EF90DF9058
:101AE000CF90BF90AF909F908F907F906F905F90BE
:101AF0000895941708F0B2CFEBCFF60184916A8174
:101B00007B815C8EFD8E1F8E8E8F95014BE3CE0107
:101B10000E94F30BFFEFCF1ADF0A28E0520E8C2D44
:101B2000801B871550F3080D191DF394A9CFAF92B0
:101B3000BF92CF92DF92FF920F931F93CF93DF93C9
:101B40006C018B01F42EE90180E1481709F498C07B
:101B5000841778F1AAE04A1709F461C0BFE04B1777
:101B600009F474C0F80102811381F2E3FF1609F44D
:101B7000DCC0FF1508F48EC085E1F81609F4DAC060
:101B8000A7E1FA1609F4EBC0B4E1FB1277C0D80163
:101B90001696ED91FC91179715968C918E0F9F2FAD
:101BA000911D11928E179F07E1F7C8010E9440080E
:101BB00065C0E1E14E1709F46AC0F5E14F13D2CFD9
:101BC000FB01A280B38046E751E0C6010E94730981
:101BD000D50114964C91406BB801C6010E945B0977
:101BE00041E0B801C6010E946309F50126813781F1
:101BF000D8011496ED91FC91D50115964C9166E0B3
:101C0000C601099581111CC080E0DF91CF911F9121
:101C10000F91FF90DF90CF90BF90AF900895DB01C0
:101C20001496ED91FC9130E020E042E061E0C601C5
:101C300009954EE751E0B801C6010E94730992CFA1
:101C400040E0B801C6010E946B098CCF41E0C6019B
:101C50000E946B0940E0B801C6010E94630941E897
:101C6000B801C6010E945B094881B801C6010E9403
:101C70005B0940E0B801C6010E946B0981E0C5CF55
:101C80004DE651E0B801C6010E947309F7CF42E664
:101C900051E0F8CFE6E4FE1609F46BC0F7E4FF1656
:101CA00009F46CC08BE3F812E9CF99818B8138E09D
:101CB000390F813031F0833011F0392F02C0392FC4
:101CC000985021E0D80113964C91491708F420E070
:101CD00041E0391708F040E091E0F80152813517F2
:101CE00008F490E0322F342B932311F4242331F2A3
:101CF000FA80D12CC12C843048F490E0FC01EA5EDB
:101D0000FE4FC0808E5E9E4FDC01DC90F7FE04C06B
:101D1000BE01C8010E94DD0B88818C0D88838981FA
:101D20008D0D8983FF0C91F7A9CFBE01C8010E94D8
:101D3000DD0BA4CFC8010E942A08882309F464CFD0
:101D4000D8011696ED91FC91179715968C918E0FF0
:101D50009F2F911D11928E179F07E1F78FCF188249
:101D6000F80182818983858181508A8383818B8375
:101D700085CFD80115968C91888380CFF801818119
:101D8000FBCFDC01ED91FD918081ED91FD91908182
:101D9000ED91FD916C9163708E2309F064609F2337
:101DA00009F06860EEEDFEE0E60FF11D65956595C2
:101DB0006D936D917D918D919D91099423C01AC071
:101DC00012C016C010C01EC009C014C013C006C087
:101DD00019C009C00DC007C00DC014C062507040CA
:101DE000804090400BC0615070408040904006C0E1
:101DF0006E5F01C06F5F7F4F8F4F9F4F9E938E939B
:101E00007E936E93089580918B0290918C020C9436
:101E1000C10E80918D0290918E020C94C10EDF92C2
:101E2000EF92FF920F931F93CF93DF93EC01D62E87
:101E30001CAD0BAD7C0184E0E80EF11CE98DFA8D40
:101E4000C7010995412F480F2D2D602FC7010E9412
:101E5000840C9BAD890F8BAF81E090E0DF91CF9137
:101E60001F910F91FF90EF90DF900895089590E0FB
:101E700080E00895FC0101900020E9F73197AF015F
:101E8000481B590BBC018EEE91E00C94B20A8F9264
:101E90009F92AF92BF920F931F93CF93DF93CDB7D3
:101EA000DEB7A1970FB6F894DEBF0FBECDBF19A263
:101EB000423008F44AE08E010F5D1F4F842E912CB2
:101EC000B12CA12CA50194010E940E1BE62FB90193
:101ED000CA01EA30F4F4E05DD801EE938D01232BC2
:101EE000242B252B79F790E080E0109719F0CD0195
:101EF0000E943A0FA1960FB6F894DEBF0FBECDBF79
:101F0000DF91CF911F910F91BF90AF909F908F90D5
:101F10000895E95CE1CF1F920F920FB60F92112442
:101F20002F933F938F939F93AF93BF9380918F0293
:101F300090919002A0919102B09192023091EB01A8
:101F400023E0230F2D3758F50196A11DB11D2093D5
:101F5000EB0180938F0290939002A0939102B09333
:101F600092028091E7019091E801A091E901B0917E
:101F7000EA010196A11DB11D8093E7019093E8014C
:101F8000A093E901B093EA01BF91AF919F918F9126
:101F90003F912F910F900FBE0F901F90189526E83C
:101FA000230F0296A11DB11DD2CF1F920F920FB623
:101FB0000F9211242F933F934F935F936F937F93CF
:101FC0008F939F93AF93BF93EF93FF93E0910A0199
:101FD000F0910B010995FF91EF91BF91AF919F9106
:101FE0008F917F916F915F914F913F912F910F90C2
:101FF0000FBE0F901F9018951F920F920FB60F9261
:1020000011242F933F934F935F936F937F938F93FD
:102010009F93AF93BF93EF93FF93E0910801F091EB
:1020200009010995FF91EF91BF91AF919F918F9118
:102030007F916F915F914F913F912F910F900FBEC4
:102040000F901F9018951F920F920FB60F921124A8
:102050002F933F934F935F936F937F938F939F93B0
:10206000AF93BF93EF93FF938EEE91E00E94340BFA
:10207000FF91EF91BF91AF919F918F917F916F9160
:102080005F914F913F912F910F900FBE0F901F9036
:1020900018951F920F920FB60F9211242F938F93C2
:1020A0009F93EF93FF93E091FE01F091FF018081F8
:1020B000E0910402F091050282FD1BC090818091A5
:1020C00007028F5F8F7320910802821741F0E09121
:1020D0000702F0E0E251FE4F958F80930702FF91D7
:1020E000EF919F918F912F910F900FBE0F901F90A6
:1020F00018958081F4CFCF93DF931092F101109265
:10210000F00188EE93E0A0E0B0E08093F2019093BC
:10211000F301A093F401B093F5018EE191E0909367
:10212000EF018093EE0185EC90E09093FB018093AA
:10213000FA0184EC90E09093FD018093FC0180EC27
:1021400090E09093FF018093FE0181EC90E09093EA
:1021500001028093000282EC90E09093030280934E
:10216000020286EC90E090930502809304021092A4
:102170000702109208021092090210920A021092AD
:10218000EA021092E90280E391E09093E8028093E2
:10219000E70210922203109223031092240310925C
:1021A000F0021092EF021092F2021092F1021092DD
:1021B000F40281E08093F30282E28093F5021092B0
:1021C000FA021092F902EEE0F3E08CE193E02FEFD7
:1021D00021938E179F07E1F7C1E0C0930B038AEEAE
:1021E00097E09093010380930003C0930203109241
:1021F00003031092040380E4809305031092060306
:1022000089EE97E090931D0380931C038CE091E08E
:102210009093EE028093ED02109219030E94F70B47
:1022200080E391E09093E8028093E70283EA92E0F2
:102230009093CA028093C90287EA92E09093C80201
:102240008093C7028FE992E09093CC028093CB02F7
:102250001092E5021092DD021092DE021092DF026F
:102260001092E00280E090E0AFE7B3E48093E102F7
:102270009093E202A093E302B093E40284E690E03C
:10228000A0E0B0E08093D9029093DA02A093DB0241
:10229000B093DC021092C4021092C30281E090E07D
:1022A0009093C6028093C502C093E60280E090E05E
:1022B000A0E0B0E48093AB029093AC02A093AD0297
:1022C000B093AE0240E050E060E07FE34093AF02A5
:1022D0005093B0026093B1027093B20240E050E0BC
:1022E00060E87FE34093B3025093B4026093B50279
:1022F0007093B6028093B7029093B802A093B9028C
:10230000B093BA028DEC9CECACE4BDE38093BB02CD
:102310009093BC02A093BD02B093BE0280E090E017
:10232000A0E2B1E48093BF029093C002A093C102E7
:10233000B093C2022FB7F89480918F0290919002CF
:10234000A0919102B09192022FBF4091D902509179
:10235000DA026091DB027091DC02841B950BA60B04
:10236000B70B8093CD029093CE02A093CF02B0938F
:10237000D00262E082E00E94280A62E083E00E94CC
:10238000280AECEEF1E0E491F0E0EE0FFF1FE052DE
:10239000FE4FA591B491B0939402A0939302EEECFA
:1023A000F1E0449140939702EDEEF1E0E491F0E02A
:1023B000EE0FFF1FE052FE4FC591D491D0939602CD
:1023C000C0939502EFECF1E0E491E0939802109253
:1023D0009A0210929B0210929C0210929D022BE393
:1023E0003FE1C9010197F1F79C91842F892391E086
:1023F00009F490E08881E82309F0926023E932E053
:102400009093990230938C0220938B0283E09FE09B
:102410009093090180930801809169008C7F81600D
:1024200080936900E89A81E080939E0230938E0247
:1024300020938D0289E09FE090930B0180930A0125
:1024400080916900837F846080936900E99A82E0CB
:1024500080939E02DF91CF910895CF93DF93CDB704
:10246000DEB72E970FB6F894DEBF0FBECDBF7894BF
:1024700084B5826084BD84B5816084BD85B5826089
:1024800085BD85B5816085BD80916E00816080933A
:102490006E001092810080918100826080938100A3
:1024A00080918100816080938100809180008160B3
:1024B000809380008091B10084608093B10080910E
:1024C000B00081608093B00080917A008460809336
:1024D0007A0080917A00826080937A0080917A00FD
:1024E000816080937A0080917A00806880937A007E
:1024F0001092C10062E084E00E94280A62E085E058
:102500000E94280A62E086E00E94280A62E087E0D2
:102510000E94280A62E088E00E94280A61E089E0BF
:102520000E94280A61E08AE00E94280A61E08BE0AC
:102530000E94280A8091EF029091F0028E5F9140F4
:1025400071F08EEF91E09093F0028093EF020E9481
:10255000EC078AEE97E0909301038093000381E0FB
:10256000809302030E94EC078091F602803309F009
:102570009DC08FEF80930B0380930C038FED9AE047
:102580009093010380930003E091FE01F091FF011D
:1025900082E08083E091FA01F091FB011082E091EA
:1025A000FC01F091FD018FEC808310920602E09116
:1025B0000202F091030286E08083E0910002F09134
:1025C0000102808180618083E0910002F09101022C
:1025D000808188608083E0910002F0910102808117
:1025E00080688083E0910002F091010280818F7DFC
:1025F000808384EF91E0A0E0B0E08093D7019093D6
:10260000D801A093D901B093DA0180E090E0AAEF5D
:10261000B3E48093A7029093A802A093A902B09379
:10262000AA0210929F021092A0021092A102109290
:10263000A2028091E502811155C0E091C902F0919A
:10264000CA02C080D180E280F380C092D102D092D1
:10265000D202E092D302F092D402E091C702F0914C
:10266000C80280819181A281B3818093D502909329
:10267000D602A093D702B093D8028090E102909046
:10268000E202A090E302B090E402A5019401C70128
:10269000B6010E94971A1816ACF48092D10290925B
:1026A000D202A092D302B092D4021CC0883231F080
:1026B000823031F081E080930B0360CF8FEFFBCF4E
:1026C00083E0F9CF8090DD029090DE02A090DF02DF
:1026D000B090E002A5019401C701B6010E94B119B2
:1026E00087FDDBCF81E08093E50280919E028230FE
:1026F00008F07FC2F89483E992E00E94C10E8091B5
:102700009A0290919B02A0919C02B0919D027894B4
:102710008093E3019093E401A093E501B093E60177
:102720004091DF015091E0016091E1017091E2017F
:10273000481759076A077B0781F08093DF01909360
:10274000E001A093E101B093E2018093DB0190935B
:10275000DC01A093DD01B093DE018091DB0190915B
:10276000DC01A091DD01B091DE014091D7015091D3
:10277000D8016091D9017091DA01841B950BA60BE9
:10278000B70BB7FF07C0B095A095909581959F4F67
:10279000AF4FBF4F9C01AD0166277727CB01621B6E
:1027A000730B840B950B0E94E7196093A70270933B
:1027B000A8028093A9029093AA028091E50288233F
:1027C00009F433C18FB7F89420918F0230919002B1
:1027D000409191025091920229873A874B875C87FA
:1027E0008FBF8091CD029091CE02A091CF02B09187
:1027F000D00249855A856B857C85481B590B6A0B2D
:102800007B0B8091D9029091DA02A091DB02B0910A
:10281000DC02481759076A077B0708F406C1E091F4
:10282000C702F091C80280819181A281B38189831E
:102830009A83AB83BC83E091CB02F091CC029C01E4
:10284000AD0160817181828193810E9444194B01A5
:102850005C012091D5023091D6024091D70250916F
:10286000D80269817A818B819C810E9444196B0115
:102870007C012091BB023091BC024091BD0250917D
:10288000BE02C501B4010E949C1A2091D102309170
:10289000D2024091D3025091D4020E9445192B01DB
:1028A0003C014092D1025092D2026092D3027092C7
:1028B000D4023090E60231101AC02091B702309154
:1028C000B8024091B9025091BA02C701B6010E9404
:1028D0009C1A9B01AC01C301B2010E944419609390
:1028E000D1027093D2028093D3029093D40240908D
:1028F000D1025090D2026090D3027090D402109115
:10290000E1029091E2029E87A091E302AD870091DF
:10291000E402212F392F4A2F502FC301B2010E9408
:10292000971A18160CF067C1812F9E85AD85B02FC0
:102930008093D1029093D202A093D302B093D40299
:10294000332009F46FC12091B7023091B802409151
:10295000B9025091BA02C501B4010E949C1A4B0100
:102960005C012091BF023091C0024091C1025091A0
:10297000C202C701B6010E949C1A9B01AC01609182
:10298000D1027091D2028091D3029091D4020E9420
:102990004419A50194010E9445196B017C019B011A
:1029A000AC01612F7E858D85902F0E94B11987FD26
:1029B00018C01091DD029091DE029E87A091DF0287
:1029C000AD870091E002212F392F4A2F502FB601F9
:1029D000C7010E94B11987FD04C01C2DDE86ED865B
:1029E0000F2DE091C902F091CA02812F9E85AD851D
:1029F000B02F80839183A283B38329813A814B8155
:102A00005C812093D5023093D6024093D702509335
:102A1000D80289859A85AB85BC858093CD02909339
:102A2000CE02A093CF02B093D00288E391E00E943F
:102A30003A0FC090A302D090A402E090A502F090BB
:102A4000A602A7019601C701B6010E94091B8823AF
:102A500009F4ECC08DE391E00E943A0F89E491E023
:102A60000E943A0F6091A3027091A4028091A50286
:102A70009091A6020E94B6196093D6010091D701E9
:102A80001091D8012091D9013091DA018091DB01B8
:102A90009091DC01A091DD01B091DE01E62FF0E024
:102AA000FA83E98380179107A207B3070CF050C19E
:102AB00061E089E00E94DC0960E08AE00E94DC09B4
:102AC00089819A810E94590A80912403811105C04D
:102AD00081E0809324030E94F70B2091ED02309156
:102AE000EE023A832983E0911C03F0911D0382E0FA
:102AF0000995E0911C03F0911D0381E0099530E0F8
:102B000020E044E169817A818BEE92E00E94F30B30
:102B10002EE133E047E169817A818BEE92E00E94F9
:102B2000F30BE0911C03F0911D0380E00995609187
:102B3000E3017091E4018091E5019091E6010E942A
:102B4000E7190CEC11E020E046E00E94B816E09195
:102B50000003F09101038BEE92E00995865F8D836F
:102B60003AE03983D8012D918D012111F7C0E09110
:102B7000F902F091FA02309719F08BEE92E0099584
:102B80000091ED021091EE02E0911C03F0911D0303
:102B900082E00995E0911C03F0911D0381E0099505
:102BA00030E020E045E1B8018BEE92E00E94F30BAB
:102BB0008983882341F02EE133E047E1B8018BEEB1
:102BC00092E00E94F30BE0911C03F0911D0380E062
:102BD0000995B981B111ABCFE0E0F0E0EF2B09F43A
:102BE00084CD0E94200B882309F47FCD0E94000031
:102BF0007CCDF89484CD2091DD023091DE024091AD
:102C0000DF025091E0022D833E834F835887C3013A
:102C1000B2010E94B11987FF93CE8D819E81AF8151
:102C2000B88586CE812C912C54019BCE460157014C
:102C3000E894B7F82FEF3FEF4FE75FE7C501B40126
:102C40000E94091B81110DC02FEF3FEF4FE75FE797
:102C5000C501B4010E94B11918161CF481E491E079
:102C6000FBCE2FEF3FEF4FE75FE4C701B6010E94B5
:102C7000971A18161CF485E491E0EECE2FEF3FEF83
:102C80004FE75FECC701B6010E94B11987FDF3CF92
:102C900020E030E0A901C701B6010E94B11987FF09
:102CA00009C06DE28EEE91E00E94560BF7FAF094A7
:102CB000F7F8F0942AE037ED43EA5BE3C701B60189
:102CC0000E9445194B015C010E94B6196B017C0101
:102CD0000E94E5199B01AC01C501B4010E94441991
:102CE0004B015C014AE0C701B6010E94470F6EE24A
:102CF0008EEE91E00E94560B20E030E040E251E47D
:102D0000C501B4010E949C1A4B015C010E94B619D6
:102D10006B01F12CE12C4AE0C701B6010E94470F7C
:102D2000C701B6010E94E5199B01AC01C501B401C0
:102D30000E94441920E030E040E251E40E949C1AD5
:102D40000E94B61990E080E04AE00E94470F86CECC
:102D500060E089E00E94DC0961E0AFCE4D816981CD
:102D60008BEE92E00E94840C4981480F4983FACE91
:102D7000EF920F931F93CF93DF93E80134E047FD69
:102D800034E1042E000C550B57FF03C051954195BB
:102D90005109E32E022F242FAE010E94D616CE0138
:102DA000DF91CF911F910F91EF900895A9E0B0E0CE
:102DB000ECEDF6E10C9413196A01F22EB02E102FEF
:102DC000FBE3AF2EA01608F41BE31F5F012F27E0E3
:102DD000AE014F5F5F4F0E943518BC018981982F6B
:102DE0009970913009F43FC09BE2E1FC04C09E2D34
:102DF0009170E0FC3AC05E2D5071E82FE87083FFBF
:102E000046C084E0911101C083E0EF2DE81B8F15CF
:102E100008F0E0E0D6018E2F20E2552351F19923EE
:102E200029F0D6019C93C60101966C0196012D5F95
:102E30003F4FE2FE24C08EE4D6018C9391E41196BC
:102E40009C93119712968C93D9018E2F90E2811149
:102E50001BC0E20FF32FF11D10828EEF9FEF29961A
:102E6000ECE00C942F199DE2C6CF90E2C4CF2D93D5
:102E700081508111FCCFCE0ED11CE0E0D0CF8EE688
:102E8000D6018C9391E6DBCF9D938150E0CF482F04
:102E9000447082FF3DC084E0911101C083E08F1532
:102EA00010F4EF2DE81BD6018E2F20E2552309F1F7
:102EB000992329F0D6019C93C60101966C019601D5
:102EC0002D5F3F4FE2FE1BC089E4D6018C938EE458
:102ED00011968C93119786E412968C93D9018E2FBC
:102EE00090E2882309F4B5CF9D938150FACF2D93BA
:102EF00081508111FCCFCE0ED11CE0E0D9CF89E604
:102F0000D6018C938EE611968C93119786E6E4CFCA
:102F10009B0177FF02C030E020E0A1E0B0E091111A
:102F200002C0B0E0A0E0F9013196AE0FBF1F8B2CBC
:102F3000912CBB2009F461C05401EFEFAE1ABE0A18
:102F4000AA0DBB1DFA161B0619F014F04F2D4A1BD3
:102F5000511188C0E3FC59C07601A42FB0E2A11141
:102F60004FC0C40ED11C992309F45BC040E0D601C8
:102F70001196F60190836D01552309F448C0012F85
:102F8000060F9A81582F507184FF03C0913309F4C2
:102F9000015010160CF047C0093008F008E0EEE2CE
:102FA000FE2E5B01A01AB1088501919481949108CD
:102FB0002F3F320729F4D601FC92F60131966F01BA
:102FC0006217730794F1021713077CF5DB01A21B4C
:102FD000B30BAA24A394B12CAC0EBD1EAA0DBB1D2D
:102FE00011968C9121503109D60111962815390579
:102FF000F4F0F60180836D01DBCFB12CA12CA0CFC2
:10300000F701B1937F01A150AACF9111B0CFD601A2
:10301000942F50E302C05D9391509111FCCFC40EE8
:10302000D11C40E0ACCF01E0BACF80E3DBCF621728
:10303000730731F4963388F4953311F4552369F00E
:10304000F6018083FD01842F90E2811108C0A40F56
:10305000B11D1C9290E080E002CF81E3F1CF91930B
:103060008150F3CF911183CF8ACF283008F027E029
:103070003327DA01990F311D87FD916000966105B4
:10308000710539F432602E5F3D9330E32A95E1F704
:1030900008959F3F30F080387105610509F03C5F6D
:1030A0003C5F3D93913008F08068911DDF93CF9392
:1030B0001F930F93FF92EF92192F987F9695E92F08
:1030C00096959695E90FFF27EE53FF4F99273327E3
:1030D000EE24FF24A701E70105900894079428F443
:1030E000360FE71EF81E491F511D660F771F881FF8
:1030F000991F0694A1F70590079428F4E70EF81E8F
:10310000491F561FC11D770F881F991F661F069400
:10311000A1F70590079428F4F80E491F561FC71F02
:10312000D11D880F991F661F771F0694A1F7059080
:10313000079420F4490F561FC71FD81F990F661F09
:10314000771F881F0694A9F784911095177041F096
:10315000D695C79557954795F794E7941A95C1F773
:10316000E8E6F0E068941590159135916591959198
:1031700005907FE27395E118F10A430B560BC90BDA
:10318000D009C0F7E10CF11E431F561FC91FD01D07
:103190007EF4703311F48A95E6CFE894015030F054
:1031A000080F0AF40027021708F4202F2395022F96
:1031B0007A3328F079E37D932A95E9F710C07D935F
:1031C0002A9589F6069497956795379517951794DC
:1031D000E118F10A430B560BC90BD00998F023955F
:1031E0007E9173957A3308F070E37C932013B8F7DF
:1031F0007E9170617D9330F0839571E37D9370E3F0
:103200002A95E1F71124EF90FF900F911F91CF9134
:10321000DF91992787FD909508952F923F924F92C5
:103220005F926F927F928F929F92AF92BF92CF9256
:10323000DF92EF92FF920F931F93CF93DF93CDB75F
:10324000DEB7CA1BDB0B0FB6F894DEBF0FBECDBFD7
:1032500009942A88398848885F846E847D848C84A8
:103260009B84AA84B984C884DF80EE80FD800C81B1
:103270001B81AA81B981CE0FD11D0FB6F894DEBF94
:103280000FBECDBFED0108955058BB27AA270E945D
:103290005C190C945D1A0E944F1A38F00E94561A5D
:1032A00020F039F49F3F19F426F40C944C1A0EF4D4
:1032B000E095E7FB0C94461AE92F0E946E1A58F32A
:1032C000BA17620773078407950720F079F4A6F50B
:1032D0000C94901A0EF4E0950B2EBA2FA02D0B0132
:1032E000B90190010C01CA01A0011124FF27591B4B
:1032F00099F0593F50F4503E68F11A16F040A22F51
:10330000232F342F4427585FF3CF469537952795C1
:10331000A795F0405395C9F77EF41F16BA0B620BC0
:10332000730B840BBAF09150A1F0FF0FBB1F661F07
:10333000771F881FC2F70EC0BA0F621F731F841F4A
:1033400048F4879577956795B795F7959E3F08F070
:10335000B0CF9395880F08F09927EE0F9795879532
:1033600008950E94221A08F481E008950E94761AB6
:1033700088F09F5798F0B92F9927B751B0F0E1F036
:10338000660F771F881F991F1AF0BA95C9F714C0E6
:10339000B13091F00E94901AB1E008950C94901A07
:1033A000672F782F8827B85F39F0B93FCCF386951F
:1033B00077956795B395D9F73EF49095809570957C
:1033C00061957F4F8F4F9F4F0895E89409C097FBF9
:1033D0003EF490958095709561957F4F8F4F9F4FEC
:1033E0009923A9F0F92F96E9BB279395F695879530
:1033F00077956795B795F111F8CFFAF4BB0F11F4F3
:1034000060FF1BC06F5F7F4F8F4F9F4F16C0882399
:1034100011F096E911C0772321F09EE8872F762FCF
:1034200005C0662371F096E8862F70E060E02AF010
:103430009A95660F771F881FDAF7880F96958795FC
:1034400097F90895990F0008550FAA0BE0E8FEEFD1
:1034500016161706E807F907C0F012161306E40758
:10346000F50798F0621B730B840B950B39F40A2651
:1034700061F0232B242B252B21F408950A2609F42F
:10348000A140A6958FEF811D811D089597F99F6733
:1034900080E870E060E008959FEF80EC08950024DC
:1034A0000A941616170618060906089500240A94A9
:1034B00012161306140605060895092E0394000C2F
:1034C00011F4882352F0BB0F40F4BF2B11F460FFBE
:1034D00004C06F5F7F4F8F4F9F4F089557FD9058E7
:1034E000440F551F59F05F3F71F04795880F97FBC8
:1034F000991F61F09F3F79F0879508951216130682
:103500001406551FF2CF4695F1DF08C016161706B0
:103510001806991FF1CF86957105610508940895E5
:10352000E894BB2766277727CB0197F908950E9477
:10353000221A08F48FEF08950E94AF1A0C945D1AB6
:103540000E944F1A38F00E94561A20F0952311F06D
:103550000C94461A0C944C1A11240C94911A0E9443
:103560006E1A70F3959FC1F3950F50E0551F629F3F
:10357000F001729FBB27F00DB11D639FAA27F00DCC
:10358000B11DAA1F649F6627B00DA11D661F829FF3
:103590002227B00DA11D621F739FB00DA11D621FD8
:1035A000839FA00D611D221F749F3327A00D611DF5
:1035B000231F849F600D211D822F762F6A2F1124D7
:1035C0009F5750409AF0F1F088234AF0EE0FFF1F0A
:1035D000BB1F661F771F881F91505040A9F79E3F61
:1035E000510580F00C94461A0C94911A5F3FE4F355
:1035F000983ED4F3869577956795B795F795E795B7
:103600009F5FC1F7FE2B880F911D9695879597F9BF
:1036100008950E94221A880B990B0895A1E21A2E90
:10362000AA1BBB1BFD010DC0AA1FBB1FEE1FFF1F66
:10363000A217B307E407F50720F0A21BB30BE40BB6
:10364000F50B661F771F881F991F1A9469F76095FD
:103650007095809590959B01AC01BD01CF010895B7
:10366000EE0FFF1F0590F491E02D0994F894FFCF21
:103670000820000000804C01B10AB10A970D00013A
:10368000FE08000100FF0100FF0000000000560BD3
:10369000B20AE30AA30B140BF20A060B00000000A7
:1036A0000F0FB20A370F360F6F75743D006E616EE3
:0C36B00000696E66006F7666000D0A006F
:00000001FF
